:020000040800F2
:100000000020002031170008FD030008FF0300084E
:1000100000000000000000000000000000000000E0
:1000200000000000000000000000000001040008C3
:1000300000000000000000000304000805040008A0
:100040008117000881170008811700088117000830
:100050008117000881170008811700088117000820
:1000600000000000811700088117000881170008B0
:1000700081170008811700080000000081170008A0
:100080000000000000000000000000000000000070
:100090008117000800000000811700088117000880
:1000A00000000000811700080000000000000000B0
:1000B0008117000881170008000000000000000000
:1000C0000023C25C0133002AFBD1581E7047000098
:1000D00003B47146490840004900095E49008E4456
:1000E00003BC7047002934D00123002210B4884299
:1000F0002CD301242407A14204D2814202D2090157
:100100001B01F8E7E400A14204D2814202D2490077
:100110005B00F8E7884201D3401A1A434C08A0421A
:1001200002D3001B5C0822438C08A04202D3001BB0
:100130009C082243CC08A04202D3001BDC082243C7
:10014000002803D01B0901D00909E3E7100010BC07
:10015000704701B5002000F00BF802BD0029F8D06F
:1001600003B5FFF7C1FF0EBC4243891A1847C046CA
:100170007047C046002B11D1002A0FD1002900D1B1
:10018000002802D00021C943080007B4024802A198
:100190004018029003BDC046D9FFFFFF03B4684674
:1001A00001B5029801F04EFF019B9E4602B00CBCC7
:1001B0007047C046D0400B00D1409C46203AD34007
:1001C00018435242634693401843704791400300DE
:1001D00090409C46203A9340194352426346D34094
:1001E0001943704710B5002903D100F007F82030FB
:1001F00002E0080000F002F810BDC0461C210123F7
:100200001B04984201D3000C10391B0A984201D3F9
:10021000000A08391B09984201D30009043902A2D7
:10022000105C40187047C04604030202010101013E
:10023000000000000000000010B5064C2378002BE1
:1002400007D1054B002B02D0044800E000BF01237A
:10025000237010BD68000020000000002421000869
:10026000044B10B5002B03D00349044800E000BF45
:1002700010BDC046000000006C00002024210008D2
:1002800030B589B01422002103A801F09FFA154B64
:10029000D96A04221143D962D96A0A400092009AAD
:1002A000DA6A01242243DA62DA6A22400192019A70
:1002B000D96A02221143D962DB6A1A400292029B78
:1002C000094D00220821280001F0B2F90823039308
:1002D000049400230593069303A9280001F0E8F88D
:1002E00009B030BD001002400004005010B50948AC
:1002F000094B0360E1235B02436000238360C3601A
:1003000003610C2242618361C3610362436200F0B6
:10031000B1FB10BD840000200044004010B5040073
:10032000012804DD0138FFF7F9FF604310BD01200B
:10033000FCE7000030B599B0342200210BA801F091
:1003400045FA1422002106A801F040FA18220021E3
:10035000684601F03BFA16490B68164A1A4080239A
:100360001B0113430B6002250B9501230E930F33E2
:100370000F931495002415948023DB021693802399
:10038000DB0317930BA800F03DFC0F2306930C3BF7
:100390000793089409940A94012106A800F0BCFE72
:1003A00000950294684600F0B1FF19B030BDC04618
:1003B00000700040FFE7FFFF00B591B000F0A8FB20
:1003C000FFF7B8FFFFF75CFFFFF790FF0C20FFF788
:1003D000A5FF02000749684601F000FA6846FFF7EA
:1003E0006FFEFA2382B29B006946034800F08CFA44
:1003F000FEE7C0463C210008840000207047FEE76D
:100400007047704710B500F097FB10BD054B5A6B55
:1004100001210A435A63996B802252050A439A6369
:100420007047C0460010024010B586B00400142288
:10043000002101A801F0CAF92268104B9A4201D0AC
:1004400006B010BD0E4B996B802292020A439A634C
:10045000D96A01221143D962DB6A1A400092009BDB
:10046000084B019302230293013304930133059354
:10047000A02001A9C00501F01BF8E1E700440040FD
:100480000010024004800000F8B504000168836891
:100490000269134342691343C26913430A68B748A8
:1004A000024013430B6022685368B5490B40E16872
:1004B0000B435360A1692268B24B9A4201D0236A70
:1004C00019439368B04803400B4393602368AF4AD5
:1004D000934212D0AB4A934220D01025A94A9342AE
:1004E00044D080231B02E2699A427CD0082D00D9B7
:1004F0002BE1AB00A64AD3589F46A64AD16C0C22EA
:100500000A40082A22D005D8002A21D0042A21D165
:100510000425E3E70C2A1FD10825DFE79D4AD26CAA
:10052000C02109010A40802109018A4216D007D85A
:10053000002A15D08021C9008A4213D10425CDE7B5
:10054000C02109018A420FD10825C7E70225C5E766
:100550000025C3E71025C1E71025BFE70225BDE749
:100560000025BBE71025B9E71025B7E7042D35D0E6
:100570000BD8002D2CD0022D05D1864B1B68DB0635
:100580002FD4854805E00125E8E0082D1ED1802004
:100590000002626853009B18834200D9E3E0130312
:1005A000834200D2E1E0070E0602500800218019C4
:1005B00079410023FFF7DEFD784BC218784B9A4251
:1005C00000D9D4E02368D8600025C7E00125C5E044
:1005D00000F07CFE0028DCD10025BFE000F0BAFA74
:1005E000F8E77048D5E7082D52D8AB006E4AD358CB
:1005F0009F4600F06BFE400063685B08C0186168AE
:10060000FFF770FD0004000C44E000F06FFE4000B6
:1006100063685B08C0186168FFF764FD0004000CA4
:10062000002537E05B4B1B68DB060BD56368580879
:100630005E4B9C4660446168FFF754FD0004000C6B
:10064000002527E063685808594B9C466044616860
:10065000FFF748FD0004000C00251BE000F07AFACB
:10066000400063685B08C0186168FFF73BFD000449
:10067000000C00250EE06368580880235B029C464E
:1006800060446168FFF72EFD0004000C002501E0C6
:1006900001250020474A0300103B934269D80F23ED
:1006A00002009A434008083B184010432368D86072
:1006B00054E000F00BFE63685B08C0186168FFF748
:1006C00011FD0004000C42E000F010FE63685B08BE
:1006D000C0186168FFF706FD0004000C002536E035
:1006E0002C4B1B68DB060BD5636858082D4B9C46CA
:1006F00060446168FFF7F6FC0004000C002526E06A
:1007000063685808244B9C4660446168FFF7EAFC24
:100710000004000C00251AE000F01CFA63685B0876
:10072000C0186168FFF7DEFC0004000C00250EE035
:100730006368580880231B029C4660446168FFF789
:10074000D1FC0004000C002501E001250020194A1D
:100750000300103B93420ED82368D8600023236621
:1007600063662800F8BD0125F8E70125F6E70125B5
:10077000F4E70125F2E70125F0E7C046F369FFEF52
:10078000FFCFFFFF00480040FFF4FFFF00440040A0
:1007900054210008001002400024F40000FDFFFF77
:1007A000FFFC0F0000093D007821000800127A00CC
:1007B0000048E801EFFF0000436ADB0706D5026846
:1007C00053682C490B40816A0B435360436A9B0773
:1007D00006D50268536828490B40C16A0B43536031
:1007E000436A5B0706D50268536824490B40016BD6
:1007F0000B435360436A1B0706D5026853682049C0
:100800000B40416B0B435360436ADB0606D502681D
:1008100093681C490B40816B0B439360436A9B06B2
:1008200006D50268936818490B40C16B0B4393606F
:10083000436A5B060BD50268536814490B40016C90
:100840000B43536080235B03026C9A420AD0436AD5
:100850001B0606D5026853680D490B40816C0B439B
:1008600053607047026853680A490B40416C0B4360
:100870005360ECE7FFFFFDFFFFFFFEFFFFFFFBFF05
:10088000FF7FFFFFFFEFFFFFFFDFFFFFFFFFEFFF38
:10089000FFFFF7FFFFFF9FFFF8B5CE46474680B545
:1008A00006000D0017009946089B98463368DC69DE
:1008B0002C40641B63425C41BC421ED14346013361
:1008C000F4D000F041F94B46C01A404502D84346E7
:1008D000002BEBD1326813680A490B401360326871
:1008E0009368A331FF318B43936020237367B36711
:1008F00050330022F254032000E00020C0BCB9466F
:10090000B046F8BD5FFEFFFFF0B5C64600B582B049
:1009100004000D0090461E00436F202B65D1002976
:1009200068D0002A68D080235B0182689A421AD07E
:100930007023E35C012B61D070230122E254002379
:10094000E3672133636700F0FFF807005023424656
:10095000E2520233E25280235B01A2689A4209D03C
:10096000002398461AE00369002BE1D1CB07DFD5BD
:1009700001203BE02369002B25D0002398460DE0A1
:1009800043461B882268DB05DB0D936202239C46ED
:10099000E0445223E25A013A92B2E2525223E35A1D
:1009A0009BB2002B12D000963B0000228021200039
:1009B000FFF772FF002823D1002DE1D02A782368A9
:1009C0009A620135E5E7A8460025E7E700963B0077
:1009D000002240212000FFF75FFF002812D12023D2
:1009E000636750330022E25400E0022002B080BC72
:1009F000B846F0BD0120F9E70120F7E70220F5E74E
:100A00000320F3E70320F1E730B583B004000023AF
:100A1000C36700F099F805002268126813070CD428
:100A200023681B685B0715D420236367A3675033D3
:100A30000022E254002003B030BD80210C4B009313
:100A40000300002289032000FFF726FF0028E7D0DB
:100A50000320F0E78021064B00932B000022C903FE
:100A60002000FFF719FF0028DED00320E3E7C0468F
:100A7000FFFFFF0110B5041E2ED0436F002B21D0C5
:100A8000242363672268136801218B4313602000CD
:100A9000FFF7FAFC012814D0636A002B18D12268F2
:100AA00053680E490B405360226893682A218B4398
:100AB00093602268136829390B4313602000FFF705
:100AC000A3FF10BD70330022C254FFF7ADFCD7E77F
:100AD0002000FFF771FEE2E70120F2E7FFB7FFFF1A
:100AE00010B50400094B1868FA218900FFF7FAFADB
:100AF00000F0D4FD002801D0012010BD01300022FB
:100B00002100404200F09AFD0020F6E7000000209E
:100B100010B5084A136840210B4313600020FFF70B
:100B2000DFFF041E02D00124200010BDFFF76EFC81
:100B3000FAE7C04600200240024A136801331360FE
:100B40007047C04604010020014B18687047C0463A
:100B50000401002010B5264BD9680C230B40082B4C
:100B600042D00C2B11D0042B09D0214B5A68520BC8
:100B700007231340013380200002984010BD1C4B16
:100B80001B68DB0632D51B48F8E78A0C0F2313409D
:100B9000194AD25C890D032319400131144BDB68DB
:100BA000DB0309D55001801A8301181AC000801890
:100BB0004002FFF797FAE1E70D4B1B68DB0609D50A
:100BC00053019B1A9801C01AC00080180002FFF759
:100BD00089FAD3E753019B1A9801C01AC000801804
:100BE0008002FFF77FFAC9E70448C7E70448C5E772
:100BF0000010024000093D00B421000800127A00F4
:100C00000024F400F0B583B0041E00D161E2C44BAF
:100C1000DA680C251540DE6880235B021E400368FD
:100C2000DB0736D5082D2CD00C2D28D06368802208
:100C30005202934255D0A022D202934258D0B84BD0
:100C40001A68B8490A401A601A68802149020A40A5
:100C50000192019A1A68B4490A401A606368002B2D
:100C600052D0FFF771FF0700AD4B1B689B0310D4F8
:100C7000FFF76AFFC01B6428F6D903202AE2002E82
:100C8000D4D0A74B1B689B0303D56368002B00D10E
:100C900022E223689B076CD5E3689A0605D5A04835
:100CA000026820210A4302608B43042D3CD00C2DA6
:100CB00038D0002B00D1AEE099490A680920824360
:100CC00013430B60FFF740FF0600954B1B685B0763
:100CD00000D597E0FFF738FF801B0228F5D90320E5
:100CE000F8E18F4A116880235B020B431360B5E77C
:100CF0008B4B19688022D2020A431A60196880223D
:100D000052020A431A60A9E7FFF71EFF0700844B4F
:100D10001B689B03BDD5FFF717FFC01B6428F6D9DE
:100D20000320D7E1002EC4D17D4A1268520702D5B4
:100D3000002B00D1D2E17A4E72687C490A402169C9
:100D400009020A437260326809218A4313433360FF
:100D5000FFF700FFF26812090F231340744AD35CB7
:100D6000D840744B18600020FFF7BAFE002800D06E
:100D7000B0E12368DB062CD5002D5FD1684B1B68E2
:100D80009B0503D5A369002B00D1A9E1644A5368F0
:100D900069490B40216A0B43536053681B021B0ACD
:100DA000E16909060B435360236A590B0131802323
:100DB0001B028B40D16809090F220A405C498A5CFA
:100DC000D3405C4A13600020FFF78AFE002800D061
:100DD00080E123681B077DD56369002B67D0504AEB
:100DE000136D01210B431365FFF7AEFE06004C4B5C
:100DF0001B6D9B076ED4FFF7A7FE801B0228F6D958
:100E0000032067E146494B68484A134022691202B1
:100E100013434B60ADE7424A136801218B431360D3
:100E2000FFF792FE06003E4B1B685B07A1D5FFF75C
:100E30008BFE801B0228F6D903204BE1A369002B0F
:100E400022D0374A116880235B000B431360FFF701
:100E50007BFE0600324B1B689B0506D4FFF774FE31
:100E6000801B0228F6D9032034E12D4A5368324909
:100E70000B40216A0B43536053681B021B0AE16954
:100E800009060B435360A4E7254A13682B490B401E
:100E90001360FFF759FE0600214B1B689B0598D590
:100EA000FFF752FE801B0228F6D9032012E11C4AEC
:100EB000136D01218B431365FFF746FE0600184BA7
:100EC0001B6D9B0706D5FFF73FFE801B0228F6D956
:100ED0000320FFE023685B0700D48CE0104B9B6B82
:100EE000DB001BD40E4A916B80235B050B4393639D
:100EF0000126134B1B68DB0526D5A3688022520010
:100F0000934235D0002B4BD1054B1A6D0B490A404B
:100F10001A651A6D0B490A401A652FE00026E8E7AA
:100F200000100240FFFFFEFFFFFFFBFFFFE0FFFF9F
:100F30009C21000800000020FF1FFFFFFFFEFFFFB5
:100F400000700040FFFBFFFF6B4A116880235B00CD
:100F50000B431360FFF7F8FD0700674B1B68DB05C9
:100F6000CBD4FFF7F1FDC01B6428F6D90320B1E014
:100F7000624A116D80235B000B431365A368002B4D
:100F800028D0FFF7E1FD07005C4B1B6D9B0530D4BB
:100F9000FFF7DAFDC01B5A4B9842F5D9032099E0C0
:100FA000A022D200934209D0544B1A6D55490A40F1
:100FB0001A651A6D54490A401A65DFE74F4B196DDF
:100FC000013AFF3A0A431A65196D802252000A431A
:100FD0001A65D3E7FFF7B8FD0700484B1B6D9B056B
:100FE00007D5FFF7B1FDC01B454B9842F5D903204B
:100FF00070E0012E1AD0636A002B00D172E00C2D34
:101000004FD0022B18D03D4A136840490B40136063
:10101000FFF79AFD0400394B1B689B013FD5FFF792
:1010200093FD001B0228F6D9032053E0334A936B4B
:1010300037490B409363DEE7304A136833490B406E
:101040001360FFF781FD05002C4B1B689B0106D543
:10105000FFF77AFD401B0228F6D903203AE0274922
:10106000CB682C4A1340A26AE06A0243206B024319
:101070001343CB600A6880235B0413430B60FFF7C4
:1010800063FD04001D4B1B689B0106D4FFF75CFD4C
:10109000001B0228F6D903201CE000201AE00020E3
:1010A00018E0012B20D0154BDA6880235B02134037
:1010B000A16A8B421AD1F0239B031340E16A8B4251
:1010C00016D1C0231B041A40236B9A4212D1002070
:1010D00000E0012003B0F0BD0120FBE70120F9E7AB
:1010E0000120F7E70020F5E70120F3E70120F1E711
:1010F0000120EFE70120EDE7007000400010024002
:1011000088130000FFFEFFFFFFFBFFFFFFFFFFFE56
:10111000FFFFFFEFFFFF02FF70B504000D00002886
:1011200000D1B7E05F4B1A68012313408B420AD20B
:101130005C490B68012293432B430B600B681A40F8
:10114000AA4200D0A8E023689B0706D5564AD36878
:10115000F0218B43A1680B43D3602368DB0764D580
:101160006368022B09D0032B29D0012B2DD04E4AC6
:101170001268920506D401208BE04B4A1268920354
:1011800000D48BE04849CA68032082431343CB60F4
:10119000FFF7DAFC06006368022B1CD0032B28D073
:1011A000012B34D0404BDB680C221A423DD0FFF7B4
:1011B000CBFC801B3D4B9842F4D9032069E03A4AAE
:1011C00012689201DED4012063E0374A12685207A8
:1011D000D8D401205DE0344BDA680C231340082B8F
:1011E00023D0FFF7B1FC801B304A9042F3D9032093
:1011F0004FE02D4BDA680C2313400C2B15D0FFF772
:10120000A3FC801B294B9842F3D9032041E0264BD5
:10121000DA680C231340042B07D0FFF795FC801BE2
:10122000224B9842F3D9032033E01E4B1A68012366
:101230001340AB4209D91B490B68012293432B434E
:101240000B600B681A40AA422AD123685B0706D5B7
:10125000154AD36816490B40E1680B43D3602368F5
:101260001B0707D51049CB68124A13402269D200E8
:101270001343CB60FFF76EFC0B4BDA6812090F23A8
:1012800013400D4AD35CD8400C4B18600020FFF788
:1012900027FC70BD0120FCE70120FAE70120F8E7F8
:1012A0000120F6E7002002400010024088130000F1
:1012B000FFF8FFFFFFC7FFFF9C2100080000002090
:1012C000014B18687047C0460000002010B5FFF7BA
:1012D000F7FF044BDA68120A07231340024AD35C73
:1012E000D84010BD00100240AC21000810B5FFF737
:1012F000E7FF044BDA68D20A07231340024AD35CA3
:10130000D84010BD00100240AC21000870B50400A8
:1013100003689B064ED55C4B9B6BDB0000D573E0EE
:10132000594A916B80235B050B4393630125574B0F
:101330001B68DB056AD5544B1968C0239B03194011
:10134000626813408B4206D0C0239B0211001940F3
:10135000994200D16FE04C4B196DC0239B020800ED
:101360001840194215D01A40824212D023689B06B9
:101370000FD5454B186D464A02401E6D802109036A
:1013800031431965196D434E314019651A65C3051E
:1013900058D46368C022920219001140914260D073
:1013A00039490B6DC02292026068024013430B65FD
:1013B000012D60D023689B0706D5334AD36C0C21DE
:1013C0008B43A1680B43D36423685B0706D52E4A81
:1013D000D36C31490B40E1680B43D36423681B078E
:1013E00006D5294AD36C2D490B4021690B43D364A0
:1013F00023681B0645D5244AD36C29490B406169F3
:101400000B43D364002070BD002590E71F4A11688C
:1014100080235B000B431360FFF796FB06001B4B1A
:101420001B68DB0500D586E7FFF78EFB801B642871
:10143000F5D90320E7E7144B1B689B0300D48AE728
:101440000120E0E7FFF780FB06000F4B1B6D9B05BB
:101450009FD4FFF779FB801B124B9842F5D90320EC
:10146000D1E709490A6810480240C02080030340C0
:1014700013430B6094E70A008B6B0C490B4093639A
:1014800098E70020BFE7C04600100240007000400F
:10149000FFFFFCFFFFFFF7FFFFF3FFFFFFCFFFFFA3
:1014A000FFFFF3FF88130000FFFFCFFFFFFFFFEFF9
:1014B000F0B5C64600B5002338E0052600E000265A
:1014C000A64034003C4302329200534E9451534A9A
:1014D00014684246D24326004546AE434D68ED03AC
:1014E00002D545462C4326004C4C266064682600F5
:1014F00016404D68AD0302D545462C432600474CA7
:101500006660A468260016404D68ED0202D5454687
:101510002C432600414CA660E46822404D68AD0291
:1015200001D5424622433D4CE26001330C68220063
:10153000DA406ED001229A4025001540A846144298
:10154000F3D04C68022C01D0122C0ED1DC080834E8
:10155000A400275807261E40B6000F25B540AF430C
:101560000D69B5402E003E4326504C68661E012E84
:1015700003D9112C01D0122C12D184685F000326EC
:10158000BE40B4432600CC68BC4034438460446809
:1015900094434A681609012232409A40224342602D
:1015A00004685E0003221700B740BC434D682A4020
:1015B000B24022430260C468BC438A68B2402243FE
:1015C000C2604A68D200B0D5154C626B0126324326
:1015D00062639A08941CA4000F4EA75903241C4070
:1015E000A4000F26A640B743A026F605B04200D1BE
:1015F00065E70C4EB04208D00B4EB04207D00B4E00
:10160000B04200D159E706265AE7012658E70226DC
:1016100056E780BCB846F0BD000001400004014020
:10162000001002400004005000080050001C005050
:10163000002A01D0816170478162FCE770B5002803
:1016400011DB8308134DC0339B005C59032210400B
:10165000C000FC3216008640B44389010A40824033
:1016600022435A5170BD0F230340083B9B080633A9
:101670009B00094A944663445D6803242040C000EF
:10168000FF2214008440A54389010A4082402A4376
:101690005A60E7E700E100E000ED00E00138802358
:1016A0005B0498420FD2094A50600948036A1B0242
:1016B0001B0AC02109060B43036200239360073312
:1016C0001360002070470120FCE7C04610E000E0F6
:1016D00000ED00E0104B1968802252000A431A60A6
:1016E000DA680E490A40DA601A680D490A401A6041
:1016F0009A6801218A439A601A680A490A401A6066
:10170000DA6809490A40DA6000221A61074B802230
:1017100012059A607047C046001002400C40FF88D6
:10172000F6FFF6FEFFFFFBFFFFFF02FF00ED00E00C
:101730000D488546002103E00C4B5B5843500431B3
:101740000B480C4B42189A42F6D30B4A02E0002396
:1017500013600432094B9A42F9D3FFF7BBFF00F044
:1017600011F8FEF729FEFEE7002000200022000805
:1017700000000020680000206800002024010020F4
:10178000FEE7000070B500260C4D0D4C641BA41044
:10179000A64209D1002600F0C5FC0A4D0A4C641B84
:1017A000A410A64205D170BDB300EB58984701368E
:1017B000EEE7B300EB5898470136F2E7F82100084E
:1017C000F8210008F8210008FC2100080300821815
:1017D000934200D1704719700133F9E70EB400B598
:1017E0000B499CB01DAB02900690079104910948EB
:1017F000094904CB0591006802A9019300F072F831
:101800000023029A13701CB008BC03B01847C046EE
:10181000FFFFFF7F040000200802FFFF70477047B2
:10182000F0B58E6885B007000C00039201939E42CC
:101830003CD890238A89DB001A4234D003250969F9
:1018400023685B1A0293636902985D43EB0F5D198D
:10185000019B6D1001331B18AB4200D91D005305CD
:1018600032D52900380000F031FB061E09D10C23C7
:101870003B6040230120A28940421343A38105B06D
:10188000F0BD029A216900F0BAFAA389144A1A40FD
:1018900080231343A381029B2661F61826606561AD
:1018A000019EED1AA560019B9E4200D9019E320067
:1018B0000399206800F0ACFAA36800209B1BA3608A
:1018C00023689E192660DAE72A00380000F05CFBE6
:1018D000061EE0D13800216900F0AEFAC7E7C04625
:1018E0007FFBFFFFF0B5A1B003901D008B890F00B7
:1018F00016001B0611D50B69002B0ED1402100F0FC
:10190000E5FA38603861002805D10C23039A0138C4
:10191000136021B0F0BD40237B61002308AC6361FC
:10192000203363761033A376079535002B78002B90
:1019300001D0252B47D1AB1B0593B5420CD032000B
:1019400039000398FFF76CFF431C00D1AEE06269D9
:10195000059B9446634463612B78002B00D1A5E07E
:10196000012200235242626004A9543252186E1CB4
:101970002360E360A3601370A365052231785448A7
:1019800000F032FA751C00281FD12268D30604D556
:10199000532304A95B1820211970130704D553237E
:1019A00004A95B182B21197033782A2B16D0350027
:1019B00000210A20E3682A786E1C303A092A4ED9A1
:1019C000002911D117E00135B0E7414B2268C01A58
:1019D0000123834013432E002360CEE7079B191D8C
:1019E0001B680791002B01DB0B9304E05B42E36073
:1019F0000223134323602B782E2B0AD16B782A2BDA
:101A000035D1079B02351A1D1B680792002B2BDB73
:101A10000993304E03223000297800F0E5F90028C0
:101A200006D04023801B8340226801351343236086
:101A30002978062228486E1C217600F0D5F9002866
:101A40003CD0264B002B25D10722079B073393431D
:101A5000083307936369049A9B18636165E74343FE
:101A6000350001219B18A6E701235B42D0E7002344
:101A70000A201A000135636029786E1C3039092963
:101A800003D9002BC5D00992C3E742433500012397
:101A90005218F1E707AB00933A002100104B03986E
:101AA00000E000BF0490049B0133D3D1BB890D98A3
:101AB0005B0600D42DE7012040422AE707AB0093E4
:101AC0003A002100064B039800F07CF8EAE7C04694
:101AD000BD210008C3210008C72100080000000044
:101AE00021180008F7B5150001938A680B690C00EE
:101AF0000090934200DA130022002B6043321278E8
:101B0000002A01D001332B6023689B0602D52B6885
:101B100002332B602268062317001F401A4227D089
:101B2000230043331B785A1E93412268920630D417
:101B3000220001990098089E4332B047431C25D0EB
:101B4000062320682A68E16800250340042B03D19E
:101B50008D1AEB43DB171D40A3682269934201DD18
:101B60009B1AED180027BD4220D1002010E001375C
:101B7000E3682A689B1ABB42D2DD22000123019947
:101B80000098089E1932B047431CF0D10120404212
:101B9000FEBD3020E1184331087021005A1C453148
:101BA0000978A218433202331170C1E722000123E1
:101BB00001990098089E1A32B047431CE6D00137BD
:101BC000D1E70000F0B58BB006920A0043320793CC
:101BD000059004920A7E0C00109B782A06D8622A8F
:101BE00008D8002A00D1C0E0582A52D02600423638
:101BF000327022E0100063381528F7D8FEF768FA33
:101C000016001F00F6FFF6FFF6FFF6FF1F00F6FFB7
:101C1000F6FFF6FFF6FFA80036009A00F6FFF6FF83
:101C2000B900F6FF3600F6FFF6FF9E0026001A68A0
:101C30004236111D1960136833700123A7E008684C
:101C400019680A1D05060BD50D681A60002D03DA08
:101C50002D23049A6D421370614B0A27039332E0DF
:101C60000D681A604106F1D52DB2EFE70D681968CD
:101C7000081D18602E0601D50D6803E06D06FBD522
:101C80000D68ADB2564B0A2703936F2A17D1082768
:101C900015E045310A70524A03921A68216820CA39
:101CA0001A60080650D5CB0702D5202319432160BE
:101CB0001027002D03D1202322689A43226023009D
:101CC000002243331A706368A360002B03DB0422F5
:101CD000216891432160002D02D1049E002B0CD07D
:101CE000049E28003900FEF739FA039B013E5B5C35
:101CF00033702B0005009F42F3D9082F09D12368C8
:101D0000DB0706D563682269934202DC3023013E7B
:101D10003370049B9B1B2361079B21000093059854
:101D2000069B09AAFFF7DEFE431C35D10120404285
:101D30000BB0F0BD202209680A43226022007821FE
:101D400045321170274AA7E74806ACD5ADB2AAE7DD
:101D50001A680D68101D4969186013682E0601D5B0
:101D6000196002E06D06FBD519800023049E2361F3
:101D7000D2E71A68111D19601668002130006268E8
:101D800000F032F8002801D0801B60606368236196
:101D90000023049A1370BFE723693200069905985F
:101DA000079DA847431CC1D023689B0715D4099BF6
:101DB000E0689842BCDA1800BAE7220001230699CD
:101DC0000598079E1932B047431CAFD00135E36830
:101DD000099A9B1AAB42F0DCE9E70025F7E7C04619
:101DE000CE210008DF210008C9B28218904201D13B
:101DF0000020704703788B42FBD00130F6E70023C8
:101E000010B59A4200D110BDCC5CC4540133F8E740
:101E100010B5884202D98B18984203D3002307E0FB
:101E20008B5C8354013AFBD210BDCC5CC4540133AB
:101E30009A42FAD1F8E7000070B50500002910D0E9
:101E40000C1F2368002B00DAE418280000F0D4F8F7
:101E50001D4A1368002B05D163601460280000F050
:101E6000D3F870BDA34208D9216860188342F3D12A
:101E700018685B6841182160EEE71A005B68002B68
:101E800001D0A342F9D911685018A0420BD12068A3
:101E90000918501811608342E0D118685B68411836
:101EA00011605360DAE7A04202D90C232B60D5E71A
:101EB00021686018834203D118685B68411821606B
:101EC00063605460CAE7C04608010020F8B50323E8
:101ED000CD1C9D43083506000C2D1FD20C25A942B0
:101EE0001ED8300000F088F825490A681400002C3C
:101EF0001AD1244F3B68002B04D12100300000F0A0
:101F000069F838602900300000F064F8431C2BD1D8
:101F10000C233000336000F077F803E0002DDEDAA8
:101F20000C2333600020F8BD23685B1B19D40B2BF6
:101F300003D92360E418256003E06368A2420ED150
:101F40000B60300000F060F8200007220B30231DEA
:101F50009043C21A9842E6D01B1AA350E3E753609D
:101F6000EFE722006468C2E70323C41C9C43A0423D
:101F7000E1D0211A300000F02DF8431CDBD1C7E777
:101F8000080100200C010020F8B507000D00160024
:101F9000002905D11100FFF799FF04002000F8BDCA
:101FA000002A03D1FFF748FF3400F7E700F034F8C8
:101FB0002C00B042F2D231003800FFF787FF041E38
:101FC000ECD029003200FFF71AFF29003800FFF794
:101FD00033FFE3E7002370B5064D040008002B60D3
:101FE00000F022F8431C03D12B68002B00D02360A3
:101FF00070BDC0462001002010B50248FFF70EFC5E
:1020000010BDC0461801002010B50248FFF707FCBC
:1020100010BDC046180100200B1F1B68181F002BA5
:1020200001DA0B58C0187047044A030010680028F2
:1020300002D0C318136070470148FAE7100100206E
:1020400028010020F0B506000F0015001C0085B027
:102050008B4263D801D1824260D821002800FEF76C
:10206000C1F8390000903000FEF7BCF8009B210059
:102070001B1A1A0028000393FEF7A8F8009001919C
:10208000B94245D801D1B04242D8009B019C012001
:102090000021039AF61AA741FEF798F804000D00F4
:1020A000039B002B2BD0019B009ADB0750081843A1
:1020B000019B5908039B9C46B9422CD801D1B042E0
:1020C00029D832003B00121A8B41012692185B413D
:1020D0000027B6185F4101235B429C446346002BF6
:1020E000EAD130003900039AFEF764F8039AA41984
:1020F0007D4106000F00FEF769F8241A8D410A9B06
:10210000002B01D01E605F602000290005B0F0BDEB
:1021100000240025C4E7B6197F41DCE70024002530
:10212000EDE70000F8B5C046F8BC08BC9E46704715
:0C213000F8B5C046F8BC08BC9E467047DD
:10213C00466163746F7269616C206F662031322066
:10214C0069732025690A0D00B2060008C80600084C
:10215C00E00600084A070008180700084A070008AC
:10216C004A0700084A07000830070008F205000873
:10217C000A06000824060008900600085C06000801
:10218C0090060008900600089006000876060008E5
:10219C00000000000000000001020304060708090B
:1021AC000000000001020304030406080C101820B0
:1021BC0030232D302B2000686C4C0065666745463B
:1021CC0047003031323334353637383941424344A5
:1021DC004546003031323334353637383961626335
:0421EC0064656600C0
:0821F00054FEFF7F0100000016
:0421F8006102000878
:0421FC00390200089C
:102200000000200008000020000000000000000086
:1022100000000000000000000000000000000000BE
:1022200000000000000000000000000000000000AE
:10223000000000000000000000000000000000009E
:10224000000000000000000000000000000000008E
:10225000000000000000000000000000000000007E
:08226000000000000000000076
:0400000508001731A7
:00000001FF
